{
  "contractName": "NFTBank",
  "abi": [
    {
      "anonymous": false,
      "inputs": [
        {
          "indexed": true,
          "internalType": "address",
          "name": "previousOwner",
          "type": "address"
        },
        {
          "indexed": true,
          "internalType": "address",
          "name": "newOwner",
          "type": "address"
        }
      ],
      "name": "OwnershipTransferred",
      "type": "event"
    },
    {
      "inputs": [
        {
          "internalType": "uint256",
          "name": "",
          "type": "uint256"
        }
      ],
      "name": "allApplications",
      "outputs": [
        {
          "internalType": "uint256",
          "name": "_applicationId",
          "type": "uint256"
        },
        {
          "internalType": "address",
          "name": "_nftAddress",
          "type": "address"
        },
        {
          "internalType": "uint256",
          "name": "_tokenId",
          "type": "uint256"
        },
        {
          "internalType": "address",
          "name": "_lendee",
          "type": "address"
        },
        {
          "internalType": "uint256",
          "name": "_interestRate",
          "type": "uint256"
        },
        {
          "internalType": "uint256",
          "name": "_tenure",
          "type": "uint256"
        },
        {
          "internalType": "uint256",
          "name": "_loanAmount",
          "type": "uint256"
        },
        {
          "internalType": "bool",
          "name": "_approved",
          "type": "bool"
        }
      ],
      "stateMutability": "view",
      "type": "function",
      "constant": true
    },
    {
      "inputs": [
        {
          "internalType": "uint256",
          "name": "",
          "type": "uint256"
        }
      ],
      "name": "allLoans",
      "outputs": [
        {
          "internalType": "uint256",
          "name": "_loanId",
          "type": "uint256"
        },
        {
          "internalType": "address",
          "name": "_nftAddress",
          "type": "address"
        },
        {
          "internalType": "uint256",
          "name": "_tokenId",
          "type": "uint256"
        },
        {
          "internalType": "address",
          "name": "_lender",
          "type": "address"
        },
        {
          "internalType": "address",
          "name": "_lendee",
          "type": "address"
        },
        {
          "internalType": "uint256",
          "name": "interestRate",
          "type": "uint256"
        },
        {
          "internalType": "uint256",
          "name": "_tenure",
          "type": "uint256"
        },
        {
          "internalType": "uint256",
          "name": "_loanAmount",
          "type": "uint256"
        },
        {
          "internalType": "uint256",
          "name": "_withdrawLimit",
          "type": "uint256"
        },
        {
          "internalType": "uint256",
          "name": "_endTime",
          "type": "uint256"
        },
        {
          "internalType": "uint256",
          "name": "_emi",
          "type": "uint256"
        },
        {
          "internalType": "bool",
          "name": "_closed",
          "type": "bool"
        }
      ],
      "stateMutability": "view",
      "type": "function",
      "constant": true
    },
    {
      "inputs": [],
      "name": "applicationId",
      "outputs": [
        {
          "internalType": "uint256",
          "name": "",
          "type": "uint256"
        }
      ],
      "stateMutability": "view",
      "type": "function",
      "constant": true
    },
    {
      "inputs": [
        {
          "internalType": "uint256",
          "name": "",
          "type": "uint256"
        }
      ],
      "name": "interestOffered",
      "outputs": [
        {
          "internalType": "uint256",
          "name": "",
          "type": "uint256"
        }
      ],
      "stateMutability": "view",
      "type": "function",
      "constant": true
    },
    {
      "inputs": [
        {
          "internalType": "address",
          "name": "",
          "type": "address"
        },
        {
          "internalType": "uint256",
          "name": "",
          "type": "uint256"
        }
      ],
      "name": "lendeeLoans",
      "outputs": [
        {
          "internalType": "uint256",
          "name": "",
          "type": "uint256"
        }
      ],
      "stateMutability": "view",
      "type": "function",
      "constant": true
    },
    {
      "inputs": [
        {
          "internalType": "address",
          "name": "",
          "type": "address"
        },
        {
          "internalType": "uint256",
          "name": "",
          "type": "uint256"
        }
      ],
      "name": "lenderLoans",
      "outputs": [
        {
          "internalType": "uint256",
          "name": "",
          "type": "uint256"
        }
      ],
      "stateMutability": "view",
      "type": "function",
      "constant": true
    },
    {
      "inputs": [
        {
          "internalType": "address",
          "name": "",
          "type": "address"
        },
        {
          "internalType": "uint256",
          "name": "",
          "type": "uint256"
        }
      ],
      "name": "loanApplications",
      "outputs": [
        {
          "internalType": "uint256",
          "name": "_applicationId",
          "type": "uint256"
        },
        {
          "internalType": "address",
          "name": "_nftAddress",
          "type": "address"
        },
        {
          "internalType": "uint256",
          "name": "_tokenId",
          "type": "uint256"
        },
        {
          "internalType": "address",
          "name": "_lendee",
          "type": "address"
        },
        {
          "internalType": "uint256",
          "name": "_interestRate",
          "type": "uint256"
        },
        {
          "internalType": "uint256",
          "name": "_tenure",
          "type": "uint256"
        },
        {
          "internalType": "uint256",
          "name": "_loanAmount",
          "type": "uint256"
        },
        {
          "internalType": "bool",
          "name": "_approved",
          "type": "bool"
        }
      ],
      "stateMutability": "view",
      "type": "function",
      "constant": true
    },
    {
      "inputs": [],
      "name": "loanId",
      "outputs": [
        {
          "internalType": "uint256",
          "name": "",
          "type": "uint256"
        }
      ],
      "stateMutability": "view",
      "type": "function",
      "constant": true
    },
    {
      "inputs": [
        {
          "internalType": "uint256",
          "name": "",
          "type": "uint256"
        }
      ],
      "name": "loanPayments",
      "outputs": [
        {
          "internalType": "uint256",
          "name": "_loanId",
          "type": "uint256"
        },
        {
          "internalType": "uint256",
          "name": "_paidBack",
          "type": "uint256"
        },
        {
          "internalType": "bool",
          "name": "_default",
          "type": "bool"
        }
      ],
      "stateMutability": "view",
      "type": "function",
      "constant": true
    },
    {
      "inputs": [],
      "name": "millisecondsInMonth",
      "outputs": [
        {
          "internalType": "uint256",
          "name": "",
          "type": "uint256"
        }
      ],
      "stateMutability": "view",
      "type": "function",
      "constant": true
    },
    {
      "inputs": [
        {
          "internalType": "uint256",
          "name": "",
          "type": "uint256"
        }
      ],
      "name": "offerCreators",
      "outputs": [
        {
          "internalType": "address",
          "name": "",
          "type": "address"
        }
      ],
      "stateMutability": "view",
      "type": "function",
      "constant": true
    },
    {
      "inputs": [
        {
          "internalType": "uint256",
          "name": "",
          "type": "uint256"
        },
        {
          "internalType": "uint256",
          "name": "",
          "type": "uint256"
        }
      ],
      "name": "offers",
      "outputs": [
        {
          "internalType": "uint256",
          "name": "_applicationId",
          "type": "uint256"
        },
        {
          "internalType": "address",
          "name": "_lender",
          "type": "address"
        },
        {
          "internalType": "uint256",
          "name": "_interestRate",
          "type": "uint256"
        },
        {
          "internalType": "bool",
          "name": "_cancelOffer",
          "type": "bool"
        },
        {
          "internalType": "bool",
          "name": "_accepted",
          "type": "bool"
        },
        {
          "internalType": "bool",
          "name": "_refund",
          "type": "bool"
        }
      ],
      "stateMutability": "view",
      "type": "function",
      "constant": true
    },
    {
      "inputs": [],
      "name": "owner",
      "outputs": [
        {
          "internalType": "address",
          "name": "",
          "type": "address"
        }
      ],
      "stateMutability": "view",
      "type": "function",
      "constant": true
    },
    {
      "inputs": [],
      "name": "renounceOwnership",
      "outputs": [],
      "stateMutability": "nonpayable",
      "type": "function"
    },
    {
      "inputs": [
        {
          "internalType": "uint256",
          "name": "",
          "type": "uint256"
        }
      ],
      "name": "totalOffers",
      "outputs": [
        {
          "internalType": "uint256",
          "name": "_applicationId",
          "type": "uint256"
        },
        {
          "internalType": "address",
          "name": "_lender",
          "type": "address"
        },
        {
          "internalType": "uint256",
          "name": "_interestRate",
          "type": "uint256"
        },
        {
          "internalType": "bool",
          "name": "_cancelOffer",
          "type": "bool"
        },
        {
          "internalType": "bool",
          "name": "_accepted",
          "type": "bool"
        },
        {
          "internalType": "bool",
          "name": "_refund",
          "type": "bool"
        }
      ],
      "stateMutability": "view",
      "type": "function",
      "constant": true
    },
    {
      "inputs": [
        {
          "internalType": "address",
          "name": "newOwner",
          "type": "address"
        }
      ],
      "name": "transferOwnership",
      "outputs": [],
      "stateMutability": "nonpayable",
      "type": "function"
    },
    {
      "inputs": [
        {
          "internalType": "address",
          "name": "_nftAddress",
          "type": "address"
        },
        {
          "internalType": "uint256",
          "name": "_nftId",
          "type": "uint256"
        },
        {
          "internalType": "uint256",
          "name": "_interestRate",
          "type": "uint256"
        },
        {
          "internalType": "uint256",
          "name": "_tenure",
          "type": "uint256"
        },
        {
          "internalType": "uint256",
          "name": "_amount",
          "type": "uint256"
        }
      ],
      "name": "applyForLoan",
      "outputs": [],
      "stateMutability": "nonpayable",
      "type": "function"
    },
    {
      "inputs": [
        {
          "internalType": "uint256",
          "name": "_applicationId",
          "type": "uint256"
        },
        {
          "internalType": "uint256",
          "name": "_interestRate",
          "type": "uint256"
        }
      ],
      "name": "createOffer",
      "outputs": [],
      "stateMutability": "payable",
      "type": "function",
      "payable": true
    },
    {
      "inputs": [
        {
          "internalType": "uint256",
          "name": "_offerId",
          "type": "uint256"
        }
      ],
      "name": "cancelOffer",
      "outputs": [],
      "stateMutability": "nonpayable",
      "type": "function"
    },
    {
      "inputs": [
        {
          "internalType": "uint256",
          "name": "_offerId",
          "type": "uint256"
        }
      ],
      "name": "acceptOffer",
      "outputs": [],
      "stateMutability": "nonpayable",
      "type": "function"
    },
    {
      "inputs": [
        {
          "internalType": "uint256",
          "name": "_applicationId",
          "type": "uint256"
        }
      ],
      "name": "lend",
      "outputs": [],
      "stateMutability": "payable",
      "type": "function",
      "payable": true
    },
    {
      "inputs": [
        {
          "internalType": "uint256",
          "name": "_loanId",
          "type": "uint256"
        },
        {
          "internalType": "uint256",
          "name": "_amount",
          "type": "uint256"
        }
      ],
      "name": "withdrawLoanAmount",
      "outputs": [],
      "stateMutability": "nonpayable",
      "type": "function"
    },
    {
      "inputs": [
        {
          "internalType": "uint256",
          "name": "_loanId",
          "type": "uint256"
        }
      ],
      "name": "payEMI",
      "outputs": [],
      "stateMutability": "payable",
      "type": "function",
      "payable": true
    },
    {
      "inputs": [
        {
          "internalType": "uint256",
          "name": "_loanId",
          "type": "uint256"
        }
      ],
      "name": "closePaidUpLoan",
      "outputs": [],
      "stateMutability": "nonpayable",
      "type": "function"
    },
    {
      "inputs": [
        {
          "internalType": "uint256",
          "name": "_loanId",
          "type": "uint256"
        }
      ],
      "name": "closeDefaultedLoan",
      "outputs": [],
      "stateMutability": "nonpayable",
      "type": "function"
    },
    {
      "inputs": [
        {
          "internalType": "uint256",
          "name": "_bankFee",
          "type": "uint256"
        }
      ],
      "name": "setFee",
      "outputs": [],
      "stateMutability": "nonpayable",
      "type": "function"
    },
    {
      "inputs": [],
      "name": "withdrawDevCommission",
      "outputs": [],
      "stateMutability": "nonpayable",
      "type": "function"
    }
  ],
  "bytecode": "0x6080604052639cbf90406003553480156200001957600080fd5b506200003a6200002e6200004060201b60201c565b6200004860201b60201c565b6200010c565b600033905090565b60008060009054906101000a900473ffffffffffffffffffffffffffffffffffffffff169050816000806101000a81548173ffffffffffffffffffffffffffffffffffffffff021916908373ffffffffffffffffffffffffffffffffffffffff1602179055508173ffffffffffffffffffffffffffffffffffffffff168173ffffffffffffffffffffffffffffffffffffffff167f8be0079c531659141344cd1fd0a4f28419497f9722a3daafe3b4186f6b6457e060405160405180910390a35050565b6130a0806200011c6000396000f3fe60806040526004361061019c5760003560e01c80638da5cb5b116100ec578063b431a71e1161008a578063c95669a511610064578063c95669a5146105e2578063e0318e661461060d578063ef706adf1461064c578063f2fde38b146106755761019c565b8063b431a71e14610553578063b8115fb51461057c578063c815729d146105b95761019c565b80639660c650116100c65780639660c650146104a15780639982334e146104ca578063a6aa57ce146104f3578063b25142921461050f5761019c565b80638da5cb5b146103f75780638f7a11581461042257806391f1f3101461045f5761019c565b8063699333aa11610159578063733706001161013357806373370600146103485780637c254a74146103645780637e03197e1461038f5780638ad10419146103cc5761019c565b8063699333aa146102f157806369fe0e2d14610308578063715018a6146103315761019c565b80631afed875146101a15780631b8a3548146101bd578063312bb27b146102055780633cdb72f11461022e5780634d03a9a51461026b5780635377879e146102ad575b600080fd5b6101bb60048036038101906101b69190612781565b61069e565b005b3480156101c957600080fd5b506101e460048036038101906101df91906127c1565b610a60565b6040516101fc9c9b9a99989796959493929190612859565b60405180910390f35b34801561021157600080fd5b5061022c600480360381019061022791906127c1565b610b2d565b005b34801561023a57600080fd5b506102556004803603810190610250919061293f565b610d23565b604051610262919061297f565b60405180910390f35b34801561027757600080fd5b50610292600480360381019061028d9190612781565b610d54565b6040516102a49695949392919061299a565b60405180910390f35b3480156102b957600080fd5b506102d460048036038101906102cf919061293f565b610df4565b6040516102e89897969594939291906129fb565b60405180910390f35b3480156102fd57600080fd5b50610306610ea6565b005b34801561031457600080fd5b5061032f600480360381019061032a91906127c1565b610f85565b005b34801561033d57600080fd5b5061034661100b565b005b610362600480360381019061035d91906127c1565b611093565b005b34801561037057600080fd5b50610379611169565b604051610386919061297f565b60405180910390f35b34801561039b57600080fd5b506103b660048036038101906103b191906127c1565b61116f565b6040516103c3919061297f565b60405180910390f35b3480156103d857600080fd5b506103e1611187565b6040516103ee919061297f565b60405180910390f35b34801561040357600080fd5b5061040c61118d565b6040516104199190612a79565b60405180910390f35b34801561042e57600080fd5b50610449600480360381019061044491906127c1565b6111b6565b6040516104569190612a79565b60405180910390f35b34801561046b57600080fd5b50610486600480360381019061048191906127c1565b6111e9565b6040516104989695949392919061299a565b60405180910390f35b3480156104ad57600080fd5b506104c860048036038101906104c391906127c1565b61126c565b005b3480156104d657600080fd5b506104f160048036038101906104ec9190612a94565b611410565b005b61050d600480360381019061050891906127c1565b611830565b005b34801561051b57600080fd5b50610536600480360381019061053191906127c1565b6118b0565b60405161054a9897969594939291906129fb565b60405180910390f35b34801561055f57600080fd5b5061057a60048036038101906105759190612781565b611945565b005b34801561058857600080fd5b506105a3600480360381019061059e919061293f565b611a68565b6040516105b0919061297f565b60405180910390f35b3480156105c557600080fd5b506105e060048036038101906105db91906127c1565b611a99565b005b3480156105ee57600080fd5b506105f7611c5e565b604051610604919061297f565b60405180910390f35b34801561061957600080fd5b50610634600480360381019061062f91906127c1565b611c64565b60405161064393929190612b0f565b60405180910390f35b34801561065857600080fd5b50610673600480360381019061066e91906127c1565b611c9b565b005b34801561068157600080fd5b5061069c60048036038101906106979190612b46565b611e46565b005b8160025410156106e3576040517f08c379a00000000000000000000000000000000000000000000000000000000081526004016106da90612bd0565b60405180910390fd5b60001515600a600084815260200190815260200160002060070160009054906101000a900460ff1615151461074d576040517f08c379a000000000000000000000000000000000000000000000000000000000815260040161074490612c62565b60405180910390fd5b600a60008381526020019081526020016000206006015434101561077057600080fd5b6001601060008282546107839190612cb1565b92505081905550600c60008381526020019081526020016000206040518060c001604052808481526020013373ffffffffffffffffffffffffffffffffffffffff1681526020018381526020016000151581526020016000151581526020016000151581525090806001815401808255809150506001900390600052602060002090600402016000909190919091506000820151816000015560208201518160010160006101000a81548173ffffffffffffffffffffffffffffffffffffffff021916908373ffffffffffffffffffffffffffffffffffffffff1602179055506040820151816002015560608201518160030160006101000a81548160ff02191690831515021790555060808201518160030160016101000a81548160ff02191690831515021790555060a08201518160030160026101000a81548160ff021916908315150217905550505080600d600060105481526020019081526020016000208190555033600e6000601054815260200190815260200160002060006101000a81548173ffffffffffffffffffffffffffffffffffffffff021916908373ffffffffffffffffffffffffffffffffffffffff1602179055506040518060c001604052808381526020013373ffffffffffffffffffffffffffffffffffffffff16815260200182815260200160001515815260200160001515815260200160001515815250600f600060105481526020019081526020016000206000820151816000015560208201518160010160006101000a81548173ffffffffffffffffffffffffffffffffffffffff021916908373ffffffffffffffffffffffffffffffffffffffff1602179055506040820151816002015560608201518160030160006101000a81548160ff02191690831515021790555060808201518160030160016101000a81548160ff02191690831515021790555060a08201518160030160026101000a81548160ff0219169083151502179055509050505050565b60066020528060005260406000206000915090508060000154908060010160009054906101000a900473ffffffffffffffffffffffffffffffffffffffff16908060020154908060030160009054906101000a900473ffffffffffffffffffffffffffffffffffffffff16908060040160009054906101000a900473ffffffffffffffffffffffffffffffffffffffff169080600501549080600601549080600701549080600801549080600901549080600a01549080600b0160009054906101000a900460ff1690508c565b6006600082815260200190815260200160002060090154421015610b5057600080fd5b6000600660008381526020019081526020016000206006015460066000848152602001908152602001600020600a0154610b8a9190612d07565b6006600084815260200190815260200160002060070154610bab9190612cb1565b90506009600083815260200190815260200160002060010154811015610bd057600080fd5b6006600083815260200190815260200160002060010160009054906101000a900473ffffffffffffffffffffffffffffffffffffffff1673ffffffffffffffffffffffffffffffffffffffff166323b872dd306006600086815260200190815260200160002060030160009054906101000a900473ffffffffffffffffffffffffffffffffffffffff1660066000878152602001908152602001600020600201546040518463ffffffff1660e01b8152600401610c8f93929190612d61565b600060405180830381600087803b158015610ca957600080fd5b505af1158015610cbd573d6000803e3d6000fd5b50505050600160066000848152602001908152602001600020600b0160006101000a81548160ff02191690831515021790555060016009600084815260200190815260200160002060020160006101000a81548160ff0219169083151502179055505050565b60086020528160005260406000208181548110610d3f57600080fd5b90600052602060002001600091509150505481565b600c6020528160005260406000208181548110610d7057600080fd5b9060005260206000209060040201600091509150508060000154908060010160009054906101000a900473ffffffffffffffffffffffffffffffffffffffff16908060020154908060030160009054906101000a900460ff16908060030160019054906101000a900460ff16908060030160029054906101000a900460ff16905086565b600b6020528160005260406000208181548110610e1057600080fd5b9060005260206000209060080201600091509150508060000154908060010160009054906101000a900473ffffffffffffffffffffffffffffffffffffffff16908060020154908060030160009054906101000a900473ffffffffffffffffffffffffffffffffffffffff16908060040154908060050154908060060154908060070160009054906101000a900460ff16905088565b610eae611f3d565b73ffffffffffffffffffffffffffffffffffffffff16610ecc61118d565b73ffffffffffffffffffffffffffffffffffffffff1614610f22576040517f08c379a0000000000000000000000000000000000000000000000000000000008152600401610f1990612de4565b60405180910390fd5b6000610f2c61118d565b9050600060055411610f3d57600080fd5b8073ffffffffffffffffffffffffffffffffffffffff166108fc6005549081150290604051600060405180830381858888f1935050505015610f825760006005819055505b50565b610f8d611f3d565b73ffffffffffffffffffffffffffffffffffffffff16610fab61118d565b73ffffffffffffffffffffffffffffffffffffffff1614611001576040517f08c379a0000000000000000000000000000000000000000000000000000000008152600401610ff890612de4565b60405180910390fd5b8060048190555050565b611013611f3d565b73ffffffffffffffffffffffffffffffffffffffff1661103161118d565b73ffffffffffffffffffffffffffffffffffffffff1614611087576040517f08c379a000000000000000000000000000000000000000000000000000000000815260040161107e90612de4565b60405180910390fd5b6110916000611f45565b565b6000151560066000838152602001908152602001600020600b0160009054906101000a900460ff161515146110c757600080fd5b60066000828152602001908152602001600020600701546009600083815260200190815260200160002060010154111561110057600080fd5b346009600083815260200190815260200160002060010160008282546111269190612cb1565b9250508190555060006103e8600454346111409190612d07565b61114a9190612e33565b9050806005600082825461115e9190612cb1565b925050819055505050565b60035481565b600d6020528060005260406000206000915090505481565b60025481565b60008060009054906101000a900473ffffffffffffffffffffffffffffffffffffffff16905090565b600e6020528060005260406000206000915054906101000a900473ffffffffffffffffffffffffffffffffffffffff1681565b600f6020528060005260406000206000915090508060000154908060010160009054906101000a900473ffffffffffffffffffffffffffffffffffffffff16908060020154908060030160009054906101000a900460ff16908060030160019054906101000a900460ff16908060030160029054906101000a900460ff16905086565b6000600660008381526020019081526020016000206006015460066000848152602001908152602001600020600a01546112a69190612d07565b60066000848152602001908152602001600020600701546112c79190612cb1565b905060096000838152602001908152602001600020600101548111156112ec57600080fd5b6006600083815260200190815260200160002060010160009054906101000a900473ffffffffffffffffffffffffffffffffffffffff1673ffffffffffffffffffffffffffffffffffffffff166323b872dd306006600086815260200190815260200160002060040160009054906101000a900473ffffffffffffffffffffffffffffffffffffffff1660066000878152602001908152602001600020600201546040518463ffffffff1660e01b81526004016113ab93929190612d61565b600060405180830381600087803b1580156113c557600080fd5b505af11580156113d9573d6000803e3d6000fd5b50505050600160066000848152602001908152602001600020600b0160006101000a81548160ff0219169083151502179055505050565b3373ffffffffffffffffffffffffffffffffffffffff168573ffffffffffffffffffffffffffffffffffffffff16636352211e866040518263ffffffff1660e01b8152600401611460919061297f565b602060405180830381865afa15801561147d573d6000803e3d6000fd5b505050506040513d601f19601f820116820180604052508101906114a19190612e79565b73ffffffffffffffffffffffffffffffffffffffff16146114f7576040517f08c379a00000000000000000000000000000000000000000000000000000000081526004016114ee90612ef2565b60405180910390fd5b60016002600082825461150a9190612cb1565b92505081905550600b60003373ffffffffffffffffffffffffffffffffffffffff1673ffffffffffffffffffffffffffffffffffffffff16815260200190815260200160002060405180610100016040528060025481526020018773ffffffffffffffffffffffffffffffffffffffff1681526020018681526020013373ffffffffffffffffffffffffffffffffffffffff1681526020018581526020018481526020018381526020016000151581525090806001815401808255809150506001900390600052602060002090600802016000909190919091506000820151816000015560208201518160010160006101000a81548173ffffffffffffffffffffffffffffffffffffffff021916908373ffffffffffffffffffffffffffffffffffffffff1602179055506040820151816002015560608201518160030160006101000a81548173ffffffffffffffffffffffffffffffffffffffff021916908373ffffffffffffffffffffffffffffffffffffffff1602179055506080820151816004015560a0820151816005015560c0820151816006015560e08201518160070160006101000a81548160ff021916908315150217905550505060405180610100016040528060025481526020018673ffffffffffffffffffffffffffffffffffffffff1681526020018581526020013373ffffffffffffffffffffffffffffffffffffffff16815260200184815260200183815260200182815260200160001515815250600a600060025481526020019081526020016000206000820151816000015560208201518160010160006101000a81548173ffffffffffffffffffffffffffffffffffffffff021916908373ffffffffffffffffffffffffffffffffffffffff1602179055506040820151816002015560608201518160030160006101000a81548173ffffffffffffffffffffffffffffffffffffffff021916908373ffffffffffffffffffffffffffffffffffffffff1602179055506080820151816004015560a0820151816005015560c0820151816006015560e08201518160070160006101000a81548160ff0219169083151502179055509050505050505050565b600a60008281526020019081526020016000206006015434101561185357600080fd5b6118ac81600a60008481526020019081526020016000206004015433600a600086815260200190815260200160002060030160009054906101000a900473ffffffffffffffffffffffffffffffffffffffff1634612009565b5050565b600a6020528060005260406000206000915090508060000154908060010160009054906101000a900473ffffffffffffffffffffffffffffffffffffffff16908060020154908060030160009054906101000a900473ffffffffffffffffffffffffffffffffffffffff16908060040154908060050154908060060154908060070160009054906101000a900460ff16905088565b3373ffffffffffffffffffffffffffffffffffffffff166006600084815260200190815260200160002060040160009054906101000a900473ffffffffffffffffffffffffffffffffffffffff1673ffffffffffffffffffffffffffffffffffffffff16146119b357600080fd5b80600660008481526020019081526020016000206008015410156119d657600080fd5b600081116119e357600080fd5b60003390508073ffffffffffffffffffffffffffffffffffffffff166108fc839081150290604051600060405180830381858888f1935050505015611a63578160066000600154815260200190815260200160002060080154611a469190612f12565b600660006001548152602001908152602001600020600801819055505b505050565b60076020528160005260406000208181548110611a8457600080fd5b90600052602060002001600091509150505481565b6000600f60008381526020019081526020016000206000015490503373ffffffffffffffffffffffffffffffffffffffff16600a600083815260200190815260200160002060030160009054906101000a900473ffffffffffffffffffffffffffffffffffffffff1673ffffffffffffffffffffffffffffffffffffffff1614611b58576040517f08c379a0000000000000000000000000000000000000000000000000000000008152600401611b4f90612fb8565b60405180910390fd5b60001515600f600084815260200190815260200160002060030160009054906101000a900460ff16151514611b8c57600080fd5b600d600083815260200190815260200160002054600a600083815260200190815260200160002060040181905550611c2581600d600085815260200190815260200160002054600e6000601054815260200190815260200160002060009054906101000a900473ffffffffffffffffffffffffffffffffffffffff1633600a600087815260200190815260200160002060060154612009565b15611c5a576001600f600084815260200190815260200160002060030160016101000a81548160ff0219169083151502179055505b5050565b60015481565b60096020528060005260406000206000915090508060000154908060010154908060020160009054906101000a900460ff16905083565b3373ffffffffffffffffffffffffffffffffffffffff16600f600083815260200190815260200160002060010160009054906101000a900473ffffffffffffffffffffffffffffffffffffffff1673ffffffffffffffffffffffffffffffffffffffff1614611d0957600080fd5b60001515600f600083815260200190815260200160002060030160029054906101000a900460ff16151514611d3d57600080fd5b60001515600f600083815260200190815260200160002060030160019054906101000a900460ff16151514611d7157600080fd5b6000600f600083815260200190815260200160002060010160009054906101000a900473ffffffffffffffffffffffffffffffffffffffff1690508073ffffffffffffffffffffffffffffffffffffffff166108fc600a6000600f6000878152602001908152602001600020600001548152602001908152602001600020600601549081150290604051600060405180830381858888f1935050505015611e42576001600f600084815260200190815260200160002060030160026101000a81548160ff0219169083151502179055505b5050565b611e4e611f3d565b73ffffffffffffffffffffffffffffffffffffffff16611e6c61118d565b73ffffffffffffffffffffffffffffffffffffffff1614611ec2576040517f08c379a0000000000000000000000000000000000000000000000000000000008152600401611eb990612de4565b60405180910390fd5b600073ffffffffffffffffffffffffffffffffffffffff168173ffffffffffffffffffffffffffffffffffffffff1603611f31576040517f08c379a0000000000000000000000000000000000000000000000000000000008152600401611f289061304a565b60405180910390fd5b611f3a81611f45565b50565b600033905090565b60008060009054906101000a900473ffffffffffffffffffffffffffffffffffffffff169050816000806101000a81548173ffffffffffffffffffffffffffffffffffffffff021916908373ffffffffffffffffffffffffffffffffffffffff1602179055508173ffffffffffffffffffffffffffffffffffffffff168173ffffffffffffffffffffffffffffffffffffffff167f8be0079c531659141344cd1fd0a4f28419497f9722a3daafe3b4186f6b6457e060405160405180910390a35050565b6000801515600a600088815260200190815260200160002060070160009054906101000a900460ff16151514612074576040517f08c379a000000000000000000000000000000000000000000000000000000000815260040161206b90612c62565b60405180910390fd5b600a600087815260200190815260200160002060030160009054906101000a900473ffffffffffffffffffffffffffffffffffffffff1673ffffffffffffffffffffffffffffffffffffffff16600a600088815260200190815260200160002060010160009054906101000a900473ffffffffffffffffffffffffffffffffffffffff1673ffffffffffffffffffffffffffffffffffffffff16636352211e600a60008a8152602001908152602001600020600201546040518263ffffffff1660e01b8152600401612146919061297f565b602060405180830381865afa158015612163573d6000803e3d6000fd5b505050506040513d601f19601f820116820180604052508101906121879190612e79565b73ffffffffffffffffffffffffffffffffffffffff16146121dd576040517f08c379a00000000000000000000000000000000000000000000000000000000081526004016121d490612ef2565b60405180910390fd5b600a600087815260200190815260200160002060010160009054906101000a900473ffffffffffffffffffffffffffffffffffffffff1673ffffffffffffffffffffffffffffffffffffffff166323b872dd8430600a60008b8152602001908152602001600020600201546040518463ffffffff1660e01b815260040161226693929190612d61565b600060405180830381600087803b15801561228057600080fd5b505af1158015612294573d6000803e3d6000fd5b5050505060018060008282546122aa9190612cb1565b925050819055506000600354600a6000898152602001908152602001600020600501546122d79190612d07565b426122e29190612cb1565b905060006123078785600a60008c8152602001908152602001600020600501546126e0565b90506040518061018001604052806001548152602001600a60008b815260200190815260200160002060010160009054906101000a900473ffffffffffffffffffffffffffffffffffffffff1673ffffffffffffffffffffffffffffffffffffffff168152602001600a60008b81526020019081526020016000206002015481526020018773ffffffffffffffffffffffffffffffffffffffff1681526020018673ffffffffffffffffffffffffffffffffffffffff168152602001888152602001600a60008b8152602001908152602001600020600501548152602001858152602001858152602001838152602001828152602001600015158152506006600060015481526020019081526020016000206000820151816000015560208201518160010160006101000a81548173ffffffffffffffffffffffffffffffffffffffff021916908373ffffffffffffffffffffffffffffffffffffffff1602179055506040820151816002015560608201518160030160006101000a81548173ffffffffffffffffffffffffffffffffffffffff021916908373ffffffffffffffffffffffffffffffffffffffff16021790555060808201518160040160006101000a81548173ffffffffffffffffffffffffffffffffffffffff021916908373ffffffffffffffffffffffffffffffffffffffff16021790555060a0820151816005015560c0820151816006015560e082015181600701556101008201518160080155610120820151816009015561014082015181600a015561016082015181600b0160006101000a81548160ff021916908315150217905550905050604051806060016040528060015481526020016000815260200160001515815250600960006001548152602001908152602001600020600082015181600001556020820151816001015560408201518160020160006101000a81548160ff0219169083151502179055509050506001600a60008a815260200190815260200160002060070160006101000a81548160ff021916908315150217905550600760008673ffffffffffffffffffffffffffffffffffffffff1673ffffffffffffffffffffffffffffffffffffffff1681526020019081526020016000206001549080600181540180825580915050600190039060005260206000200160009091909190915055600860008773ffffffffffffffffffffffffffffffffffffffff1673ffffffffffffffffffffffffffffffffffffffff168152602001908152602001600020600154908060018154018082558091505060019003906000526020600020016000909190919091505560019250505095945050505050565b6000806126ed858561271a565b905060006126fd826103e8612730565b9050600061270b8286612730565b90508093505050509392505050565b600081836127289190612d07565b905092915050565b6000818361273e9190612e33565b905092915050565b600080fd5b6000819050919050565b61275e8161274b565b811461276957600080fd5b50565b60008135905061277b81612755565b92915050565b6000806040838503121561279857612797612746565b5b60006127a68582860161276c565b92505060206127b78582860161276c565b9150509250929050565b6000602082840312156127d7576127d6612746565b5b60006127e58482850161276c565b91505092915050565b6127f78161274b565b82525050565b600073ffffffffffffffffffffffffffffffffffffffff82169050919050565b6000612828826127fd565b9050919050565b6128388161281d565b82525050565b60008115159050919050565b6128538161283e565b82525050565b60006101808201905061286f600083018f6127ee565b61287c602083018e61282f565b612889604083018d6127ee565b612896606083018c61282f565b6128a3608083018b61282f565b6128b060a083018a6127ee565b6128bd60c08301896127ee565b6128ca60e08301886127ee565b6128d86101008301876127ee565b6128e66101208301866127ee565b6128f46101408301856127ee565b61290261016083018461284a565b9d9c50505050505050505050505050565b61291c8161281d565b811461292757600080fd5b50565b60008135905061293981612913565b92915050565b6000806040838503121561295657612955612746565b5b60006129648582860161292a565b92505060206129758582860161276c565b9150509250929050565b600060208201905061299460008301846127ee565b92915050565b600060c0820190506129af60008301896127ee565b6129bc602083018861282f565b6129c960408301876127ee565b6129d6606083018661284a565b6129e3608083018561284a565b6129f060a083018461284a565b979650505050505050565b600061010082019050612a11600083018b6127ee565b612a1e602083018a61282f565b612a2b60408301896127ee565b612a38606083018861282f565b612a4560808301876127ee565b612a5260a08301866127ee565b612a5f60c08301856127ee565b612a6c60e083018461284a565b9998505050505050505050565b6000602082019050612a8e600083018461282f565b92915050565b600080600080600060a08688031215612ab057612aaf612746565b5b6000612abe8882890161292a565b9550506020612acf8882890161276c565b9450506040612ae08882890161276c565b9350506060612af18882890161276c565b9250506080612b028882890161276c565b9150509295509295909350565b6000606082019050612b2460008301866127ee565b612b3160208301856127ee565b612b3e604083018461284a565b949350505050565b600060208284031215612b5c57612b5b612746565b5b6000612b6a8482850161292a565b91505092915050565b600082825260208201905092915050565b7f54686973206170706c69636174696f6e20646f6573206e6f7420657869737400600082015250565b6000612bba601f83612b73565b9150612bc582612b84565b602082019050919050565b60006020820190508181036000830152612be981612bad565b9050919050565b7f4c6f616e206170706c69636174696f6e20616c726561647920617070726f766560008201527f6400000000000000000000000000000000000000000000000000000000000000602082015250565b6000612c4c602183612b73565b9150612c5782612bf0565b604082019050919050565b60006020820190508181036000830152612c7b81612c3f565b9050919050565b7f4e487b7100000000000000000000000000000000000000000000000000000000600052601160045260246000fd5b6000612cbc8261274b565b9150612cc78361274b565b9250827fffffffffffffffffffffffffffffffffffffffffffffffffffffffffffffffff03821115612cfc57612cfb612c82565b5b828201905092915050565b6000612d128261274b565b9150612d1d8361274b565b9250817fffffffffffffffffffffffffffffffffffffffffffffffffffffffffffffffff0483118215151615612d5657612d55612c82565b5b828202905092915050565b6000606082019050612d76600083018661282f565b612d83602083018561282f565b612d9060408301846127ee565b949350505050565b7f4f776e61626c653a2063616c6c6572206973206e6f7420746865206f776e6572600082015250565b6000612dce602083612b73565b9150612dd982612d98565b602082019050919050565b60006020820190508181036000830152612dfd81612dc1565b9050919050565b7f4e487b7100000000000000000000000000000000000000000000000000000000600052601260045260246000fd5b6000612e3e8261274b565b9150612e498361274b565b925082612e5957612e58612e04565b5b828204905092915050565b600081519050612e7381612913565b92915050565b600060208284031215612e8f57612e8e612746565b5b6000612e9d84828501612e64565b91505092915050565b7f57616c6c657420646f6573206e6f74206f776e2074686973204e465400000000600082015250565b6000612edc601c83612b73565b9150612ee782612ea6565b602082019050919050565b60006020820190508181036000830152612f0b81612ecf565b9050919050565b6000612f1d8261274b565b9150612f288361274b565b925082821015612f3b57612f3a612c82565b5b828203905092915050565b7f546869732077616c6c657420646964206e6f742063726561746520746869732060008201527f6170706c69636174696f6e000000000000000000000000000000000000000000602082015250565b6000612fa2602b83612b73565b9150612fad82612f46565b604082019050919050565b60006020820190508181036000830152612fd181612f95565b9050919050565b7f4f776e61626c653a206e6577206f776e657220697320746865207a65726f206160008201527f6464726573730000000000000000000000000000000000000000000000000000602082015250565b6000613034602683612b73565b915061303f82612fd8565b604082019050919050565b6000602082019050818103600083015261306381613027565b905091905056fea26469706673582212204005e39d65f6d8b2143dad5f62d7586a4529ca532347f4cbdc00c41816dd46f864736f6c634300080e0033",
  "immutableReferences": {},
  "source": "pragma solidity >=0.8.0;\r\n\r\nimport \"@openzeppelin/contracts/token/ERC721/IERC721.sol\";\r\nimport \"@openzeppelin/contracts/utils/math/SafeMath.sol\";\r\nimport \"@openzeppelin/contracts/access/Ownable.sol\";\r\n\r\n\r\n\r\n\r\ncontract NFTBank is Ownable {\r\n\r\n    uint public loanId;\r\n    uint public applicationId;\r\n    uint public millisecondsInMonth = 2629800000;\r\n    uint bankFee;\r\n    uint bankCommission;\r\n\r\n    \r\n\r\n    struct loan{\r\n\r\n        uint _loanId;\r\n        address _nftAddress;\r\n        uint _tokenId;\r\n        address _lender;\r\n        address _lendee;\r\n        uint interestRate;\r\n        uint _tenure;\r\n        uint _loanAmount;\r\n        uint _withdrawLimit;\r\n        uint _endTime;\r\n        uint _emi;\r\n        bool _closed;\r\n        \r\n\r\n    }\r\n\r\n    struct loanPayment{\r\n        uint _loanId;\r\n        uint _paidBack;\r\n        bool _default;\r\n    }\r\n\r\n    struct loanApplication{\r\n        \r\n        uint _applicationId;\r\n        address _nftAddress;\r\n        uint _tokenId;\r\n        address _lendee;\r\n        uint _interestRate;\r\n        uint _tenure;\r\n        uint _loanAmount;\r\n        bool _approved;\r\n        \r\n\r\n    }\r\n\r\n    mapping(uint=>loan) public allLoans;\r\n    mapping(address => uint[]) public lendeeLoans;\r\n    mapping(address => uint[]) public lenderLoans;\r\n\r\n    mapping(uint=>loanPayment) public loanPayments;\r\n\r\n    mapping(uint=>loanApplication) public allApplications;\r\n    mapping(address=>loanApplication[]) public loanApplications;\r\n\r\n\r\n    function applyForLoan(address _nftAddress, uint _nftId, uint _interestRate, uint _tenure, uint _amount) public {\r\n\r\n        require(IERC721(_nftAddress).ownerOf(_nftId)==msg.sender, \"Wallet does not own this NFT\");\r\n        \r\n\r\n        applicationId+=1;\r\n        loanApplications[msg.sender].push(loanApplication(applicationId, _nftAddress, _nftId, msg.sender, _interestRate, _tenure, _amount, false));\r\n        allApplications[applicationId] = loanApplication(applicationId, _nftAddress, _nftId, msg.sender, _interestRate, _tenure, _amount, false);\r\n\r\n\r\n\r\n    }\r\n\r\n    struct offer{\r\n        \r\n        uint _applicationId;\r\n        address _lender;\r\n        uint _interestRate;\r\n        bool _cancelOffer;\r\n        bool _accepted;\r\n        bool _refund;\r\n\r\n    }\r\n\r\n    mapping(uint =>offer[]) public offers;\r\n    mapping(uint=>uint) public interestOffered;\r\n    mapping(uint=>address) public offerCreators;\r\n    mapping(uint=>offer) public totalOffers;\r\n\r\n    uint offerId;\r\n\r\n    function createOffer(uint _applicationId, uint _interestRate) public payable {\r\n\r\n        require(applicationId>=_applicationId,\"This application does not exist\");\r\n        require(allApplications[_applicationId]._approved==false, \"Loan application already approved\");\r\n        require(msg.value>=allApplications[_applicationId]._loanAmount);\r\n\r\n        offerId+=1;        \r\n\r\n        offers[_applicationId].push(offer(_applicationId,msg.sender, _interestRate, false,false, false));\r\n        interestOffered[offerId]= _interestRate;\r\n        offerCreators[offerId]=msg.sender;\r\n        totalOffers[offerId]= offer(_applicationId,msg.sender, _interestRate, false,false, false);\r\n        \r\n    }\r\n\r\n    function cancelOffer(uint _offerId) public{\r\n\r\n        require(totalOffers[_offerId]._lender==msg.sender);\r\n        require(totalOffers[_offerId]._refund==false);\r\n        require(totalOffers[_offerId]._accepted==false);\r\n\r\n        address payable receiver = payable(totalOffers[_offerId]._lender);\r\n        \r\n\r\n        if(receiver.send(allApplications[totalOffers[_offerId]._applicationId]._loanAmount)){\r\n            totalOffers[_offerId]._refund=true;\r\n\r\n        }\r\n\r\n    }\r\n\r\n    function acceptOffer(uint _offerId) public {\r\n\r\n        uint _applicationId = totalOffers[_offerId]._applicationId;\r\n\r\n        require(allApplications[_applicationId]._lendee==msg.sender,\"This wallet did not create this application\");\r\n        require(totalOffers[_offerId]._cancelOffer==false);\r\n        \r\n\r\n        allApplications[_applicationId]._interestRate = interestOffered[_offerId];\r\n\r\n        if(processLoanApplication(_applicationId, interestOffered[_offerId],offerCreators[offerId],msg.sender,\r\n         allApplications[_applicationId]._loanAmount)){\r\n\r\n            totalOffers[_offerId]._accepted=true;\r\n         }\r\n\r\n\r\n\r\n    }\r\n\r\n    function lend(uint _applicationId) public payable{\r\n\r\n        require(msg.value>=allApplications[_applicationId]._loanAmount);\r\n        processLoanApplication(_applicationId, allApplications[_applicationId]._interestRate, msg.sender,allApplications[_applicationId]._lendee, msg.value );\r\n\r\n    }\r\n\r\n    \r\n\r\n    function processLoanApplication(uint _applicationId, uint _interestRate, address _lender, address _lendee, uint _loanAmount) private returns(bool) {\r\n\r\n        require(allApplications[_applicationId]._approved==false, \"Loan application already approved\");\r\n\r\n        require(IERC721(allApplications[_applicationId]._nftAddress).ownerOf(allApplications[_applicationId]._tokenId)==allApplications[_applicationId]._lendee, \"Wallet does not own this NFT\");\r\n        \r\n\r\n        \r\n        //Seize the colletral\r\n        IERC721(allApplications[_applicationId]._nftAddress).transferFrom(_lendee, address(this), \r\n        allApplications[_applicationId]._tokenId);\r\n\r\n        //Create Loan\r\n        loanId+=1;\r\n        uint _endTime = block.timestamp + (allApplications[_applicationId]._tenure)*millisecondsInMonth;\r\n\r\n        uint _emi=calculateEMI( _interestRate, _loanAmount, allApplications[_applicationId]._tenure);\r\n\r\n        allLoans[loanId]=loan(loanId,allApplications[_applicationId]._nftAddress, \r\n        allApplications[_applicationId]._tokenId,_lender,\r\n        _lendee, _interestRate,allApplications[_applicationId]._tenure, _loanAmount, _loanAmount, \r\n        _endTime,_emi, false);\r\n\r\n        loanPayments[loanId]=loanPayment(loanId,0,false);\r\n\r\n        allApplications[_applicationId]._approved=true; \r\n\r\n\r\n\r\n        lendeeLoans[_lendee].push(loanId);\r\n\r\n        lenderLoans[_lender].push(loanId);\r\n\r\n        return(true);\r\n\r\n        \r\n\r\n    }\r\n    function calculateEMI(uint _interestRate, uint _loanAmount, uint _tenure) private returns(uint){\r\n\r\n        \r\n        uint a = SafeMath.mul(_interestRate, _loanAmount);\r\n        uint _totalinterest = SafeMath.div(a,1000);\r\n        uint _emi = SafeMath.div(_totalinterest,_tenure);\r\n        \r\n        return(_emi);\r\n\r\n\r\n\r\n    }\r\n\r\n    function withdrawLoanAmount(uint _loanId, uint _amount) public {\r\n\r\n        require(allLoans[_loanId]._lendee==msg.sender);\r\n        require(allLoans[_loanId]._withdrawLimit>=_amount);\r\n        require(_amount>0);\r\n\r\n        address payable receiver = payable(msg.sender);        \r\n\r\n        if(receiver.send(_amount)){\r\n            allLoans[loanId]._withdrawLimit = allLoans[loanId]._withdrawLimit - _amount;\r\n\r\n        }\r\n\r\n\r\n    }\r\n\r\n    function payEMI(uint _loanId) public payable {\r\n\r\n        require(allLoans[_loanId]._closed==false);\r\n        require(loanPayments[_loanId]._paidBack<=allLoans[_loanId]._loanAmount);\r\n\r\n        loanPayments[_loanId]._paidBack += msg.value;\r\n\r\n        uint commission = msg.value*bankFee/1000;\r\n\r\n        bankCommission+=commission;\r\n\r\n\r\n    }\r\n\r\n    function closePaidUpLoan(uint _loanId) public {\r\n\r\n        uint _payableAmount = allLoans[_loanId]._loanAmount +(allLoans[_loanId]._emi*allLoans[_loanId]._tenure);\r\n\r\n        require(_payableAmount<=loanPayments[_loanId]._paidBack);\r\n\r\n        IERC721(allLoans[_loanId]._nftAddress).transferFrom(address(this),allLoans[_loanId]._lendee, \r\n        allLoans[_loanId]._tokenId);\r\n\r\n        allLoans[_loanId]._closed = true;\r\n        \r\n\r\n\r\n        \r\n\r\n    }\r\n\r\n    function closeDefaultedLoan(uint _loanId) public{\r\n        require(block.timestamp>=allLoans[_loanId]._endTime);\r\n        uint _payableAmount = allLoans[_loanId]._loanAmount +(allLoans[_loanId]._emi*allLoans[_loanId]._tenure);\r\n        require(_payableAmount>=loanPayments[_loanId]._paidBack);\r\n        IERC721(allLoans[_loanId]._nftAddress).transferFrom(address(this),allLoans[_loanId]._lender , \r\n        allLoans[_loanId]._tokenId);\r\n        allLoans[_loanId]._closed = true;\r\n        loanPayments[_loanId]._default = true;\r\n\r\n\r\n    }\r\n\r\n    function setFee(uint _bankFee) public onlyOwner{\r\n        bankFee =_bankFee;\r\n    }\r\n\r\n    //Contract Owner can withdraw his commission from transactions\r\n    function withdrawDevCommission() public onlyOwner{\r\n        address payable receiver = payable(owner());\r\n        require(bankCommission>0);\r\n\r\n        if(receiver.send(bankCommission)){\r\n            bankCommission =0;\r\n\r\n        }\r\n    }\r\n\r\n\r\n\r\n    \r\n    \r\n}",
  "sourcePath": "C:\\Users\\jayfo\\Desktop\\Web3\\nft_lending\\contracts\\NFTBank.sol",
  "compiler": {
    "name": "solc",
    "version": "0.8.14+commit.80d49f37.Emscripten.clang"
  },
  "schemaVersion": "3.4.4",
  "updatedAt": "2022-06-09T20:25:00.813Z",
  "networkType": "ethereum",
  "devdoc": {
    "kind": "dev",
    "methods": {
      "owner()": {
        "details": "Returns the address of the current owner."
      },
      "renounceOwnership()": {
        "details": "Leaves the contract without owner. It will not be possible to call `onlyOwner` functions anymore. Can only be called by the current owner. NOTE: Renouncing ownership will leave the contract without an owner, thereby removing any functionality that is only available to the owner."
      },
      "transferOwnership(address)": {
        "details": "Transfers ownership of the contract to a new account (`newOwner`). Can only be called by the current owner."
      }
    },
    "version": 1
  },
  "userdoc": {
    "kind": "user",
    "methods": {},
    "version": 1
  }
}